:020000040800F2
:100000000000082429030008790300087903000888
:100010007903000879030008790300080000000054
:10002000000000000000000000000000790300084C
:100030007903000800000000790300087903000834
:1000400079030008790300087903000879030008A0
:100050007903000879030008790300087903000890
:100060007903000879030008790300087903000880
:100070007903000879030008790300087903000870
:100080007903000879030008790300087903000860
:100090007903000879030008790300087903000850
:1000A0007903000879030008790300087903000840
:1000B0007903000879030008790300087903000830
:1000C0007903000879030008790300087903000820
:1000D0007903000879030008790300087903000810
:1000E0007903000879030008000000007903000884
:1000F00079030008790300087903000879030008F0
:1001000079030008790300087903000879030008DF
:1001100079030008790300087903000879030008CF
:1001200079030008790300087903000879030008BF
:1001300079030008790300087903000879030008AF
:1001400000000000000000000000000000000000AF
:10015000790300087903000879030008790300088F
:10016000790300087903000879030008790300087F
:1001700079030008790300087903000800000000F3
:10018000790300087903000879030008790300085F
:10019000790300087903000879030008790300084F
:1001A000790300087903000879030008790300083F
:1001B000790300087903000879030008790300082F
:1001C000790300087903000879030008790300081F
:1001D000790300087903000879030008790300080F
:1001E00079030008790300087903000879030008FF
:1001F00079030008790300087903000879030008EF
:1002000079030008790300087903000879030008DE
:1002100079030008790300087903000879030008CE
:100220007903000879030008790300080000000042
:100230007903000879030008000000007903000832
:10024000790300087903000879030008790300089E
:10025000790300087903000879030008790300088E
:10026000790300087903000879030008790300087E
:1002700079030008790300087903000800000000F2
:1002800079030008790300087903000800000000E2
:1002900000000000790300080000000000000000DA
:1002A00010B5054C237833B9044B13B10448AFF3B0
:1002B00000800123237010BD000000240000000016
:1002C000A404000808B5034B1BB103490348AFF36E
:1002D000008008BD0000000004000024A404000801
:1002E00070B50D4D0D4C641BA4100026A64209D11B
:1002F0000B4D0C4C00F0D6F8641BA4100026A6424F
:1003000005D170BD55F8043B98470136EEE755F826
:10031000043B98470136F2E7C0040008C004000817
:10032000C0040008C4040008DFF834D000F026F848
:100330000C480D490D4A002302E0D458C450043340
:10034000C4188C42F9D30A4A0A4C002301E0136016
:100350000432A242FBD3FFF7C3FF00F09BF87047C3
:10036000000008240000002400000024000500080C
:100370000000002420000024FEE7000080B400AF4D
:10038000394BD3F88830384A43F47003C2F88830C8
:10039000364B1B6803F00F03062B07D8334B1B6843
:1003A00023F00F03314A43F007031360304B1B68FF
:1003B0002F4A43F0010313602D4B00221A612C4B8E
:1003C0001A682B492B4B13400B60284B1B6803F01A
:1003D0000803002B07D0254B1B6823F00F03234A8B
:1003E00043F007031360224B00229A61204B002246
:1003F000DA611F4B00221A621D4B1F4A9A621C4B86
:100400001E4ADA621A4B1E4A1A63194B00225A63BB
:10041000174B1B4A9A63164B0022DA63144B184A97
:100420001A64134B00225A64114B1B68104A23F4C0
:10043000802313600E4B00221A66124B1A68124B6F
:100440001340B3F1005F02D2104B01221A60104B2F
:1004500043F2D2021A60044B4FF000629A6000BF70
:10046000BD465DF8047B704700ED00E000200052BF
:10047000004402587FEDF6EA000202020000FF018C
:10048000800201010010005C0000FFFF08810051A4
:100490000040005280B400AF00231846BD465DF80E
:1004A000047B7047F8B500BFF8BC08BC9E46704797
:1004B000F8B500BFF8BC08BC9E46704700000000BD
:1004C000C50200080000000000000000000000005D
:1004D000000000000000000000000000000000001C
:1004E000A102000800000000000000000000000061
:1004F00000000000000000000000000000000000FC
:0400000508000329C3
:00000001FF
