:020000040800F2
:1000000010B5054C237833B9044B13B10448AFF352
:1000100000800123237010BD0000002400000000B8
:100020004000000808B5034B1BB103490348AFF378
:10003000008008BD0000000004000024400000080B
:10004000F8B500BFF8BC08BC9E467047F8B500BFC5
:10005000F8BC08BC9E46704700000000000000008D
:100060002500000800000000000000000000000063
:100070000000000000000000000000000000000080
:100080000100000800000000000000000000000067
:100090000000000000000000000000000000000060
:0400000508000000EF
:00000001FF
